{
  "contractName": "PolygonNFT1155V2",
  "abi": [
    {
      "inputs": [
        {
          "internalType": "string",
          "name": "_name",
          "type": "string"
        },
        {
          "internalType": "string",
          "name": "_symbol",
          "type": "string"
        }
      ],
      "stateMutability": "nonpayable",
      "type": "constructor"
    },
    {
      "anonymous": false,
      "inputs": [
        {
          "indexed": true,
          "internalType": "address",
          "name": "account",
          "type": "address"
        },
        {
          "indexed": true,
          "internalType": "address",
          "name": "operator",
          "type": "address"
        },
        {
          "indexed": false,
          "internalType": "bool",
          "name": "approved",
          "type": "bool"
        }
      ],
      "name": "ApprovalForAll",
      "type": "event"
    },
    {
      "anonymous": false,
      "inputs": [
        {
          "indexed": false,
          "internalType": "uint256[]",
          "name": "mintedIds",
          "type": "uint256[]"
        }
      ],
      "name": "BatchMintERC1155",
      "type": "event"
    },
    {
      "anonymous": false,
      "inputs": [
        {
          "indexed": true,
          "internalType": "address",
          "name": "previousOwner",
          "type": "address"
        },
        {
          "indexed": true,
          "internalType": "address",
          "name": "newOwner",
          "type": "address"
        }
      ],
      "name": "OwnershipTransferred",
      "type": "event"
    },
    {
      "anonymous": false,
      "inputs": [
        {
          "indexed": true,
          "internalType": "address",
          "name": "operator",
          "type": "address"
        },
        {
          "indexed": true,
          "internalType": "address",
          "name": "from",
          "type": "address"
        },
        {
          "indexed": true,
          "internalType": "address",
          "name": "to",
          "type": "address"
        },
        {
          "indexed": false,
          "internalType": "uint256[]",
          "name": "ids",
          "type": "uint256[]"
        },
        {
          "indexed": false,
          "internalType": "uint256[]",
          "name": "values",
          "type": "uint256[]"
        }
      ],
      "name": "TransferBatch",
      "type": "event"
    },
    {
      "anonymous": false,
      "inputs": [
        {
          "indexed": true,
          "internalType": "address",
          "name": "operator",
          "type": "address"
        },
        {
          "indexed": true,
          "internalType": "address",
          "name": "from",
          "type": "address"
        },
        {
          "indexed": true,
          "internalType": "address",
          "name": "to",
          "type": "address"
        },
        {
          "indexed": false,
          "internalType": "uint256",
          "name": "id",
          "type": "uint256"
        },
        {
          "indexed": false,
          "internalType": "uint256",
          "name": "value",
          "type": "uint256"
        }
      ],
      "name": "TransferSingle",
      "type": "event"
    },
    {
      "anonymous": false,
      "inputs": [
        {
          "indexed": false,
          "internalType": "string",
          "name": "value",
          "type": "string"
        },
        {
          "indexed": true,
          "internalType": "uint256",
          "name": "id",
          "type": "uint256"
        }
      ],
      "name": "URI",
      "type": "event"
    },
    {
      "inputs": [
        {
          "internalType": "address",
          "name": "account",
          "type": "address"
        },
        {
          "internalType": "uint256",
          "name": "id",
          "type": "uint256"
        }
      ],
      "name": "balanceOf",
      "outputs": [
        {
          "internalType": "uint256",
          "name": "",
          "type": "uint256"
        }
      ],
      "stateMutability": "view",
      "type": "function"
    },
    {
      "inputs": [
        {
          "internalType": "address[]",
          "name": "accounts",
          "type": "address[]"
        },
        {
          "internalType": "uint256[]",
          "name": "ids",
          "type": "uint256[]"
        }
      ],
      "name": "balanceOfBatch",
      "outputs": [
        {
          "internalType": "uint256[]",
          "name": "",
          "type": "uint256[]"
        }
      ],
      "stateMutability": "view",
      "type": "function"
    },
    {
      "inputs": [
        {
          "internalType": "address",
          "name": "account",
          "type": "address"
        },
        {
          "internalType": "address",
          "name": "operator",
          "type": "address"
        }
      ],
      "name": "isApprovedForAll",
      "outputs": [
        {
          "internalType": "bool",
          "name": "",
          "type": "bool"
        }
      ],
      "stateMutability": "view",
      "type": "function"
    },
    {
      "inputs": [
        {
          "internalType": "address",
          "name": "forwarder",
          "type": "address"
        }
      ],
      "name": "isTrustedForwarder",
      "outputs": [
        {
          "internalType": "bool",
          "name": "",
          "type": "bool"
        }
      ],
      "stateMutability": "view",
      "type": "function"
    },
    {
      "inputs": [],
      "name": "name",
      "outputs": [
        {
          "internalType": "string",
          "name": "",
          "type": "string"
        }
      ],
      "stateMutability": "view",
      "type": "function"
    },
    {
      "inputs": [],
      "name": "owner",
      "outputs": [
        {
          "internalType": "address",
          "name": "",
          "type": "address"
        }
      ],
      "stateMutability": "view",
      "type": "function"
    },
    {
      "inputs": [],
      "name": "renounceOwnership",
      "outputs": [],
      "stateMutability": "nonpayable",
      "type": "function"
    },
    {
      "inputs": [
        {
          "internalType": "address",
          "name": "from",
          "type": "address"
        },
        {
          "internalType": "address",
          "name": "to",
          "type": "address"
        },
        {
          "internalType": "uint256[]",
          "name": "ids",
          "type": "uint256[]"
        },
        {
          "internalType": "uint256[]",
          "name": "amounts",
          "type": "uint256[]"
        },
        {
          "internalType": "bytes",
          "name": "data",
          "type": "bytes"
        }
      ],
      "name": "safeBatchTransferFrom",
      "outputs": [],
      "stateMutability": "nonpayable",
      "type": "function"
    },
    {
      "inputs": [
        {
          "internalType": "address",
          "name": "from",
          "type": "address"
        },
        {
          "internalType": "address",
          "name": "to",
          "type": "address"
        },
        {
          "internalType": "uint256",
          "name": "id",
          "type": "uint256"
        },
        {
          "internalType": "uint256",
          "name": "amount",
          "type": "uint256"
        },
        {
          "internalType": "bytes",
          "name": "data",
          "type": "bytes"
        }
      ],
      "name": "safeTransferFrom",
      "outputs": [],
      "stateMutability": "nonpayable",
      "type": "function"
    },
    {
      "inputs": [
        {
          "internalType": "address",
          "name": "operator",
          "type": "address"
        },
        {
          "internalType": "bool",
          "name": "approved",
          "type": "bool"
        }
      ],
      "name": "setApprovalForAll",
      "outputs": [],
      "stateMutability": "nonpayable",
      "type": "function"
    },
    {
      "inputs": [
        {
          "internalType": "bytes4",
          "name": "interfaceId",
          "type": "bytes4"
        }
      ],
      "name": "supportsInterface",
      "outputs": [
        {
          "internalType": "bool",
          "name": "",
          "type": "bool"
        }
      ],
      "stateMutability": "view",
      "type": "function"
    },
    {
      "inputs": [],
      "name": "symbol",
      "outputs": [
        {
          "internalType": "string",
          "name": "",
          "type": "string"
        }
      ],
      "stateMutability": "view",
      "type": "function"
    },
    {
      "inputs": [
        {
          "internalType": "uint256",
          "name": "",
          "type": "uint256"
        }
      ],
      "name": "tokenURI",
      "outputs": [
        {
          "internalType": "string",
          "name": "",
          "type": "string"
        }
      ],
      "stateMutability": "view",
      "type": "function"
    },
    {
      "inputs": [
        {
          "internalType": "address",
          "name": "newOwner",
          "type": "address"
        }
      ],
      "name": "transferOwnership",
      "outputs": [],
      "stateMutability": "nonpayable",
      "type": "function"
    },
    {
      "inputs": [
        {
          "internalType": "address",
          "name": "user",
          "type": "address"
        },
        {
          "internalType": "string",
          "name": "_uri",
          "type": "string"
        },
        {
          "internalType": "uint256[]",
          "name": "tokenIds",
          "type": "uint256[]"
        },
        {
          "internalType": "uint256[]",
          "name": "amount",
          "type": "uint256[]"
        }
      ],
      "name": "mint",
      "outputs": [],
      "stateMutability": "nonpayable",
      "type": "function"
    },
    {
      "inputs": [
        {
          "internalType": "string",
          "name": "newuri",
          "type": "string"
        }
      ],
      "name": "setURI",
      "outputs": [],
      "stateMutability": "nonpayable",
      "type": "function"
    },
    {
      "inputs": [
        {
          "internalType": "uint256",
          "name": "_id",
          "type": "uint256"
        }
      ],
      "name": "uri",
      "outputs": [
        {
          "internalType": "string",
          "name": "",
          "type": "string"
        }
      ],
      "stateMutability": "view",
      "type": "function"
    }
  ],
  "bytecode": "0x60a06040523480156200001157600080fd5b5060405162003dd038038062003dd08339818101604052810190620000379190620004d4565b739399bb24dbb5c4b782c70c2969f58716ebbd6a3b604051806020016040528060008152506200006d81620000fd60201b60201c565b508073ffffffffffffffffffffffffffffffffffffffff1660808173ffffffffffffffffffffffffffffffffffffffff168152505050620000c3620000b76200011960201b60201c565b6200013560201b60201c565b8160049080519060200190620000db92919062000287565b508060059080519060200190620000f492919062000287565b505050620005be565b80600290805190602001906200011592919062000287565b5050565b600062000130620001fb60201b62000eea1760201c565b905090565b6000600360009054906101000a900473ffffffffffffffffffffffffffffffffffffffff16905081600360006101000a81548173ffffffffffffffffffffffffffffffffffffffff021916908373ffffffffffffffffffffffffffffffffffffffff1602179055508173ffffffffffffffffffffffffffffffffffffffff168173ffffffffffffffffffffffffffffffffffffffff167f8be0079c531659141344cd1fd0a4f28419497f9722a3daafe3b4186f6b6457e060405160405180910390a35050565b60006200020e336200024560201b60201c565b156200022457601436033560601c905062000241565b620002396200027f60201b62000f1c1760201c565b905062000242565b5b90565b600060805173ffffffffffffffffffffffffffffffffffffffff168273ffffffffffffffffffffffffffffffffffffffff16149050919050565b600033905090565b828054620002959062000588565b90600052602060002090601f016020900481019282620002b9576000855562000305565b82601f10620002d457805160ff191683800117855562000305565b8280016001018555821562000305579182015b8281111562000304578251825591602001919060010190620002e7565b5b50905062000314919062000318565b5090565b5b808211156200033357600081600090555060010162000319565b5090565b6000604051905090565b600080fd5b600080fd5b600080fd5b600080fd5b6000601f19601f8301169050919050565b7f4e487b7100000000000000000000000000000000000000000000000000000000600052604160045260246000fd5b620003a08262000355565b810181811067ffffffffffffffff82111715620003c257620003c162000366565b5b80604052505050565b6000620003d762000337565b9050620003e5828262000395565b919050565b600067ffffffffffffffff82111562000408576200040762000366565b5b620004138262000355565b9050602081019050919050565b60005b838110156200044057808201518184015260208101905062000423565b8381111562000450576000848401525b50505050565b60006200046d6200046784620003ea565b620003cb565b9050828152602081018484840111156200048c576200048b62000350565b5b6200049984828562000420565b509392505050565b600082601f830112620004b957620004b86200034b565b5b8151620004cb84826020860162000456565b91505092915050565b60008060408385031215620004ee57620004ed62000341565b5b600083015167ffffffffffffffff8111156200050f576200050e62000346565b5b6200051d85828601620004a1565b925050602083015167ffffffffffffffff81111562000541576200054062000346565b5b6200054f85828601620004a1565b9150509250929050565b7f4e487b7100000000000000000000000000000000000000000000000000000000600052602260045260246000fd5b60006002820490506001821680620005a157607f821691505b60208210811415620005b857620005b762000559565b5b50919050565b6080516137f6620005da600039600061088f01526137f66000f3fe608060405234801561001057600080fd5b506004361061010a5760003560e01c8063715018a6116100a2578063c87b56dd11610071578063c87b56dd146102b7578063e985e9c5146102e7578063f242432a14610317578063f2fde38b14610333578063fbcc96471461034f5761010a565b8063715018a6146102555780638da5cb5b1461025f57806395d89b411461027d578063a22cb4651461029b5761010a565b80630e89341c116100de5780630e89341c146101a95780632eb2c2d6146101d95780634e1273f4146101f5578063572b6c05146102255761010a565b8062fdd58e1461010f57806301ffc9a71461013f57806302fe53051461016f57806306fdde031461018b575b600080fd5b61012960048036038101906101249190612085565b61036b565b60405161013691906120d4565b60405180910390f35b61015960048036038101906101549190612147565b610434565b604051610166919061218f565b60405180910390f35b610189600480360381019061018491906122f0565b610516565b005b61019361059e565b6040516101a091906123c1565b60405180910390f35b6101c360048036038101906101be91906123e3565b61062c565b6040516101d091906123c1565b60405180910390f35b6101f360048036038101906101ee9190612579565b6106d1565b005b61020f600480360381019061020a919061270b565b610772565b60405161021c9190612841565b60405180910390f35b61023f600480360381019061023a9190612863565b61088b565b60405161024c919061218f565b60405180910390f35b61025d6108e3565b005b61026761096b565b604051610274919061289f565b60405180910390f35b610285610995565b60405161029291906123c1565b60405180910390f35b6102b560048036038101906102b091906128e6565b610a23565b005b6102d160048036038101906102cc91906123e3565b610a39565b6040516102de91906123c1565b60405180910390f35b61030160048036038101906102fc9190612926565b610ad9565b60405161030e919061218f565b60405180910390f35b610331600480360381019061032c9190612966565b610b6d565b005b61034d60048036038101906103489190612863565b610c0e565b005b610369600480360381019061036491906129fd565b610d06565b005b60008073ffffffffffffffffffffffffffffffffffffffff168373ffffffffffffffffffffffffffffffffffffffff1614156103dc576040517f08c379a00000000000000000000000000000000000000000000000000000000081526004016103d390612b2a565b60405180910390fd5b60008083815260200190815260200160002060008473ffffffffffffffffffffffffffffffffffffffff1673ffffffffffffffffffffffffffffffffffffffff16815260200190815260200160002054905092915050565b60007fd9b67a26000000000000000000000000000000000000000000000000000000007bffffffffffffffffffffffffffffffffffffffffffffffffffffffff1916827bffffffffffffffffffffffffffffffffffffffffffffffffffffffff191614806104ff57507f0e89341c000000000000000000000000000000000000000000000000000000007bffffffffffffffffffffffffffffffffffffffffffffffffffffffff1916827bffffffffffffffffffffffffffffffffffffffffffffffffffffffff1916145b8061050f575061050e82610f24565b5b9050919050565b61051e610f8e565b73ffffffffffffffffffffffffffffffffffffffff1661053c61096b565b73ffffffffffffffffffffffffffffffffffffffff1614610592576040517f08c379a000000000000000000000000000000000000000000000000000000000815260040161058990612b96565b60405180910390fd5b61059b81610f9d565b50565b600480546105ab90612be5565b80601f01602080910402602001604051908101604052809291908181526020018280546105d790612be5565b80156106245780601f106105f957610100808354040283529160200191610624565b820191906000526020600020905b81548152906001019060200180831161060757829003601f168201915b505050505081565b606060076000838152602001908152602001600020805461064c90612be5565b80601f016020809104026020016040519081016040528092919081815260200182805461067890612be5565b80156106c55780601f1061069a576101008083540402835291602001916106c5565b820191906000526020600020905b8154815290600101906020018083116106a857829003601f168201915b50505050509050919050565b6106d9610f8e565b73ffffffffffffffffffffffffffffffffffffffff168573ffffffffffffffffffffffffffffffffffffffff16148061071f575061071e85610719610f8e565b610ad9565b5b61075e576040517f08c379a000000000000000000000000000000000000000000000000000000000815260040161075590612c89565b60405180910390fd5b61076b8585858585610fb7565b5050505050565b606081518351146107b8576040517f08c379a00000000000000000000000000000000000000000000000000000000081526004016107af90612d1b565b60405180910390fd5b6000835167ffffffffffffffff8111156107d5576107d46121c5565b5b6040519080825280602002602001820160405280156108035781602001602082028036833780820191505090505b50905060005b84518110156108805761085085828151811061082857610827612d3b565b5b602002602001015185838151811061084357610842612d3b565b5b602002602001015161036b565b82828151811061086357610862612d3b565b5b6020026020010181815250508061087990612d99565b9050610809565b508091505092915050565b60007f000000000000000000000000000000000000000000000000000000000000000073ffffffffffffffffffffffffffffffffffffffff168273ffffffffffffffffffffffffffffffffffffffff16149050919050565b6108eb610f8e565b73ffffffffffffffffffffffffffffffffffffffff1661090961096b565b73ffffffffffffffffffffffffffffffffffffffff161461095f576040517f08c379a000000000000000000000000000000000000000000000000000000000815260040161095690612b96565b60405180910390fd5b61096960006112cb565b565b6000600360009054906101000a900473ffffffffffffffffffffffffffffffffffffffff16905090565b600580546109a290612be5565b80601f01602080910402602001604051908101604052809291908181526020018280546109ce90612be5565b8015610a1b5780601f106109f057610100808354040283529160200191610a1b565b820191906000526020600020905b8154815290600101906020018083116109fe57829003601f168201915b505050505081565b610a35610a2e610f8e565b8383611391565b5050565b60076020528060005260406000206000915090508054610a5890612be5565b80601f0160208091040260200160405190810160405280929190818152602001828054610a8490612be5565b8015610ad15780601f10610aa657610100808354040283529160200191610ad1565b820191906000526020600020905b815481529060010190602001808311610ab457829003601f168201915b505050505081565b6000600160008473ffffffffffffffffffffffffffffffffffffffff1673ffffffffffffffffffffffffffffffffffffffff16815260200190815260200160002060008373ffffffffffffffffffffffffffffffffffffffff1673ffffffffffffffffffffffffffffffffffffffff16815260200190815260200160002060009054906101000a900460ff16905092915050565b610b75610f8e565b73ffffffffffffffffffffffffffffffffffffffff168573ffffffffffffffffffffffffffffffffffffffff161480610bbb5750610bba85610bb5610f8e565b610ad9565b5b610bfa576040517f08c379a0000000000000000000000000000000000000000000000000000000008152600401610bf190612e54565b60405180910390fd5b610c0785858585856114fe565b5050505050565b610c16610f8e565b73ffffffffffffffffffffffffffffffffffffffff16610c3461096b565b73ffffffffffffffffffffffffffffffffffffffff1614610c8a576040517f08c379a0000000000000000000000000000000000000000000000000000000008152600401610c8190612b96565b60405180910390fd5b600073ffffffffffffffffffffffffffffffffffffffff168173ffffffffffffffffffffffffffffffffffffffff161415610cfa576040517f08c379a0000000000000000000000000000000000000000000000000000000008152600401610cf190612ee6565b60405180910390fd5b610d03816112cb565b50565b8051825114610d4a576040517f08c379a0000000000000000000000000000000000000000000000000000000008152600401610d4190612f52565b60405180910390fd5b6000825167ffffffffffffffff811115610d6757610d666121c5565b5b604051908082528060200260200182016040528015610d955781602001602082028036833780820191505090505b50905060008084600081518110610daf57610dae612d3b565b5b602002602001015190505b8460018651610dc99190612f72565b81518110610dda57610dd9612d3b565b5b60200260200101518111610eaa57610df26006611780565b6000610dfe6006611796565b9050610e358882878681518110610e1857610e17612d3b565b5b6020026020010151604051806020016040528060008152506117a4565b80848481518110610e4957610e48612d3b565b5b6020026020010181815250508280610e6090612d99565b935050610e968188610e718561193a565b604051602001610e8292919061302e565b604051602081830303815290604052611a9b565b508080610ea290612d99565b915050610dba565b507fab451372b0f9c7d09c3cf2c658e21bad399ddd28b5a5d43770ca246256c0432282604051610eda9190612841565b60405180910390a1505050505050565b6000610ef53361088b565b15610f0957601436033560601c9050610f18565b610f11610f1c565b9050610f19565b5b90565b600033905090565b60007f01ffc9a7000000000000000000000000000000000000000000000000000000007bffffffffffffffffffffffffffffffffffffffffffffffffffffffff1916827bffffffffffffffffffffffffffffffffffffffffffffffffffffffff1916149050919050565b6000610f98610eea565b905090565b8060029080519060200190610fb3929190611f3a565b5050565b8151835114610ffb576040517f08c379a0000000000000000000000000000000000000000000000000000000008152600401610ff2906130cf565b60405180910390fd5b600073ffffffffffffffffffffffffffffffffffffffff168473ffffffffffffffffffffffffffffffffffffffff16141561106b576040517f08c379a000000000000000000000000000000000000000000000000000000000815260040161106290613161565b60405180910390fd5b6000611075610f8e565b9050611085818787878787611ac7565b60005b84518110156112365760008582815181106110a6576110a5612d3b565b5b6020026020010151905060008583815181106110c5576110c4612d3b565b5b60200260200101519050600080600084815260200190815260200160002060008b73ffffffffffffffffffffffffffffffffffffffff1673ffffffffffffffffffffffffffffffffffffffff16815260200190815260200160002054905081811015611166576040517f08c379a000000000000000000000000000000000000000000000000000000000815260040161115d906131f3565b60405180910390fd5b81810360008085815260200190815260200160002060008c73ffffffffffffffffffffffffffffffffffffffff1673ffffffffffffffffffffffffffffffffffffffff168152602001908152602001600020819055508160008085815260200190815260200160002060008b73ffffffffffffffffffffffffffffffffffffffff1673ffffffffffffffffffffffffffffffffffffffff168152602001908152602001600020600082825461121b9190613213565b925050819055505050508061122f90612d99565b9050611088565b508473ffffffffffffffffffffffffffffffffffffffff168673ffffffffffffffffffffffffffffffffffffffff168273ffffffffffffffffffffffffffffffffffffffff167f4a39dc06d4c0dbc64b70af90fd698a233a518aa5d07e595d983b8c0526c8f7fb87876040516112ad929190613269565b60405180910390a46112c3818787878787611acf565b505050505050565b6000600360009054906101000a900473ffffffffffffffffffffffffffffffffffffffff16905081600360006101000a81548173ffffffffffffffffffffffffffffffffffffffff021916908373ffffffffffffffffffffffffffffffffffffffff1602179055508173ffffffffffffffffffffffffffffffffffffffff168173ffffffffffffffffffffffffffffffffffffffff167f8be0079c531659141344cd1fd0a4f28419497f9722a3daafe3b4186f6b6457e060405160405180910390a35050565b8173ffffffffffffffffffffffffffffffffffffffff168373ffffffffffffffffffffffffffffffffffffffff161415611400576040517f08c379a00000000000000000000000000000000000000000000000000000000081526004016113f790613312565b60405180910390fd5b80600160008573ffffffffffffffffffffffffffffffffffffffff1673ffffffffffffffffffffffffffffffffffffffff16815260200190815260200160002060008473ffffffffffffffffffffffffffffffffffffffff1673ffffffffffffffffffffffffffffffffffffffff16815260200190815260200160002060006101000a81548160ff0219169083151502179055508173ffffffffffffffffffffffffffffffffffffffff168373ffffffffffffffffffffffffffffffffffffffff167f17307eab39ab6107e8899845ad3d59bd9653f200f220920489ca2b5937696c31836040516114f1919061218f565b60405180910390a3505050565b600073ffffffffffffffffffffffffffffffffffffffff168473ffffffffffffffffffffffffffffffffffffffff16141561156e576040517f08c379a000000000000000000000000000000000000000000000000000000000815260040161156590613161565b60405180910390fd5b6000611578610f8e565b905061159881878761158988611cb6565b61159288611cb6565b87611ac7565b600080600086815260200190815260200160002060008873ffffffffffffffffffffffffffffffffffffffff1673ffffffffffffffffffffffffffffffffffffffff1681526020019081526020016000205490508381101561162f576040517f08c379a0000000000000000000000000000000000000000000000000000000008152600401611626906131f3565b60405180910390fd5b83810360008087815260200190815260200160002060008973ffffffffffffffffffffffffffffffffffffffff1673ffffffffffffffffffffffffffffffffffffffff168152602001908152602001600020819055508360008087815260200190815260200160002060008873ffffffffffffffffffffffffffffffffffffffff1673ffffffffffffffffffffffffffffffffffffffff16815260200190815260200160002060008282546116e49190613213565b925050819055508573ffffffffffffffffffffffffffffffffffffffff168773ffffffffffffffffffffffffffffffffffffffff168373ffffffffffffffffffffffffffffffffffffffff167fc3d58168c5ae7397731d063d5bbf3d657854427343f4c083240f7aacaa2d0f628888604051611761929190613332565b60405180910390a4611777828888888888611d30565b50505050505050565b6001816000016000828254019250508190555050565b600081600001549050919050565b600073ffffffffffffffffffffffffffffffffffffffff168473ffffffffffffffffffffffffffffffffffffffff161415611814576040517f08c379a000000000000000000000000000000000000000000000000000000000815260040161180b906133cd565b60405180910390fd5b600061181e610f8e565b905061183f8160008761183088611cb6565b61183988611cb6565b87611ac7565b8260008086815260200190815260200160002060008773ffffffffffffffffffffffffffffffffffffffff1673ffffffffffffffffffffffffffffffffffffffff168152602001908152602001600020600082825461189e9190613213565b925050819055508473ffffffffffffffffffffffffffffffffffffffff16600073ffffffffffffffffffffffffffffffffffffffff168273ffffffffffffffffffffffffffffffffffffffff167fc3d58168c5ae7397731d063d5bbf3d657854427343f4c083240f7aacaa2d0f62878760405161191c929190613332565b60405180910390a461193381600087878787611d30565b5050505050565b60606000821415611982576040518060400160405280600181526020017f30000000000000000000000000000000000000000000000000000000000000008152509050611a96565b600082905060005b600082146119b457808061199d90612d99565b915050600a826119ad919061341c565b915061198a565b60008167ffffffffffffffff8111156119d0576119cf6121c5565b5b6040519080825280601f01601f191660200182016040528015611a025781602001600182028036833780820191505090505b5090505b60008514611a8f57600182611a1b9190612f72565b9150600a85611a2a919061344d565b6030611a369190613213565b60f81b818381518110611a4c57611a4b612d3b565b5b60200101907effffffffffffffffffffffffffffffffffffffffffffffffffffffffffffff1916908160001a905350600a85611a88919061341c565b9450611a06565b8093505050505b919050565b80600760008481526020019081526020016000209080519060200190611ac2929190611f3a565b505050565b505050505050565b611aee8473ffffffffffffffffffffffffffffffffffffffff16611f17565b15611cae578373ffffffffffffffffffffffffffffffffffffffff1663bc197c8187878686866040518663ffffffff1660e01b8152600401611b349594939291906134d3565b602060405180830381600087803b158015611b4e57600080fd5b505af1925050508015611b7f57506040513d601f19601f82011682018060405250810190611b7c9190613550565b60015b611c2557611b8b61358a565b806308c379a01415611be85750611ba06135ac565b80611bab5750611bea565b806040517f08c379a0000000000000000000000000000000000000000000000000000000008152600401611bdf91906123c1565b60405180910390fd5b505b6040517f08c379a0000000000000000000000000000000000000000000000000000000008152600401611c1c906136b4565b60405180910390fd5b63bc197c8160e01b7bffffffffffffffffffffffffffffffffffffffffffffffffffffffff1916817bffffffffffffffffffffffffffffffffffffffffffffffffffffffff191614611cac576040517f08c379a0000000000000000000000000000000000000000000000000000000008152600401611ca390613746565b60405180910390fd5b505b505050505050565b60606000600167ffffffffffffffff811115611cd557611cd46121c5565b5b604051908082528060200260200182016040528015611d035781602001602082028036833780820191505090505b5090508281600081518110611d1b57611d1a612d3b565b5b60200260200101818152505080915050919050565b611d4f8473ffffffffffffffffffffffffffffffffffffffff16611f17565b15611f0f578373ffffffffffffffffffffffffffffffffffffffff1663f23a6e6187878686866040518663ffffffff1660e01b8152600401611d95959493929190613766565b602060405180830381600087803b158015611daf57600080fd5b505af1925050508015611de057506040513d601f19601f82011682018060405250810190611ddd9190613550565b60015b611e8657611dec61358a565b806308c379a01415611e495750611e016135ac565b80611e0c5750611e4b565b806040517f08c379a0000000000000000000000000000000000000000000000000000000008152600401611e4091906123c1565b60405180910390fd5b505b6040517f08c379a0000000000000000000000000000000000000000000000000000000008152600401611e7d906136b4565b60405180910390fd5b63f23a6e6160e01b7bffffffffffffffffffffffffffffffffffffffffffffffffffffffff1916817bffffffffffffffffffffffffffffffffffffffffffffffffffffffff191614611f0d576040517f08c379a0000000000000000000000000000000000000000000000000000000008152600401611f0490613746565b60405180910390fd5b505b505050505050565b6000808273ffffffffffffffffffffffffffffffffffffffff163b119050919050565b828054611f4690612be5565b90600052602060002090601f016020900481019282611f685760008555611faf565b82601f10611f8157805160ff1916838001178555611faf565b82800160010185558215611faf579182015b82811115611fae578251825591602001919060010190611f93565b5b509050611fbc9190611fc0565b5090565b5b80821115611fd9576000816000905550600101611fc1565b5090565b6000604051905090565b600080fd5b600080fd5b600073ffffffffffffffffffffffffffffffffffffffff82169050919050565b600061201c82611ff1565b9050919050565b61202c81612011565b811461203757600080fd5b50565b60008135905061204981612023565b92915050565b6000819050919050565b6120628161204f565b811461206d57600080fd5b50565b60008135905061207f81612059565b92915050565b6000806040838503121561209c5761209b611fe7565b5b60006120aa8582860161203a565b92505060206120bb85828601612070565b9150509250929050565b6120ce8161204f565b82525050565b60006020820190506120e960008301846120c5565b92915050565b60007fffffffff0000000000000000000000000000000000000000000000000000000082169050919050565b612124816120ef565b811461212f57600080fd5b50565b6000813590506121418161211b565b92915050565b60006020828403121561215d5761215c611fe7565b5b600061216b84828501612132565b91505092915050565b60008115159050919050565b61218981612174565b82525050565b60006020820190506121a46000830184612180565b92915050565b600080fd5b600080fd5b6000601f19601f8301169050919050565b7f4e487b7100000000000000000000000000000000000000000000000000000000600052604160045260246000fd5b6121fd826121b4565b810181811067ffffffffffffffff8211171561221c5761221b6121c5565b5b80604052505050565b600061222f611fdd565b905061223b82826121f4565b919050565b600067ffffffffffffffff82111561225b5761225a6121c5565b5b612264826121b4565b9050602081019050919050565b82818337600083830152505050565b600061229361228e84612240565b612225565b9050828152602081018484840111156122af576122ae6121af565b5b6122ba848285612271565b509392505050565b600082601f8301126122d7576122d66121aa565b5b81356122e7848260208601612280565b91505092915050565b60006020828403121561230657612305611fe7565b5b600082013567ffffffffffffffff81111561232457612323611fec565b5b612330848285016122c2565b91505092915050565b600081519050919050565b600082825260208201905092915050565b60005b83811015612373578082015181840152602081019050612358565b83811115612382576000848401525b50505050565b600061239382612339565b61239d8185612344565b93506123ad818560208601612355565b6123b6816121b4565b840191505092915050565b600060208201905081810360008301526123db8184612388565b905092915050565b6000602082840312156123f9576123f8611fe7565b5b600061240784828501612070565b91505092915050565b600067ffffffffffffffff82111561242b5761242a6121c5565b5b602082029050602081019050919050565b600080fd5b600061245461244f84612410565b612225565b905080838252602082019050602084028301858111156124775761247661243c565b5b835b818110156124a0578061248c8882612070565b845260208401935050602081019050612479565b5050509392505050565b600082601f8301126124bf576124be6121aa565b5b81356124cf848260208601612441565b91505092915050565b600067ffffffffffffffff8211156124f3576124f26121c5565b5b6124fc826121b4565b9050602081019050919050565b600061251c612517846124d8565b612225565b905082815260208101848484011115612538576125376121af565b5b612543848285612271565b509392505050565b600082601f8301126125605761255f6121aa565b5b8135612570848260208601612509565b91505092915050565b600080600080600060a0868803121561259557612594611fe7565b5b60006125a38882890161203a565b95505060206125b48882890161203a565b945050604086013567ffffffffffffffff8111156125d5576125d4611fec565b5b6125e1888289016124aa565b935050606086013567ffffffffffffffff81111561260257612601611fec565b5b61260e888289016124aa565b925050608086013567ffffffffffffffff81111561262f5761262e611fec565b5b61263b8882890161254b565b9150509295509295909350565b600067ffffffffffffffff821115612663576126626121c5565b5b602082029050602081019050919050565b600061268761268284612648565b612225565b905080838252602082019050602084028301858111156126aa576126a961243c565b5b835b818110156126d357806126bf888261203a565b8452602084019350506020810190506126ac565b5050509392505050565b600082601f8301126126f2576126f16121aa565b5b8135612702848260208601612674565b91505092915050565b6000806040838503121561272257612721611fe7565b5b600083013567ffffffffffffffff8111156127405761273f611fec565b5b61274c858286016126dd565b925050602083013567ffffffffffffffff81111561276d5761276c611fec565b5b612779858286016124aa565b9150509250929050565b600081519050919050565b600082825260208201905092915050565b6000819050602082019050919050565b6127b88161204f565b82525050565b60006127ca83836127af565b60208301905092915050565b6000602082019050919050565b60006127ee82612783565b6127f8818561278e565b93506128038361279f565b8060005b8381101561283457815161281b88826127be565b9750612826836127d6565b925050600181019050612807565b5085935050505092915050565b6000602082019050818103600083015261285b81846127e3565b905092915050565b60006020828403121561287957612878611fe7565b5b60006128878482850161203a565b91505092915050565b61289981612011565b82525050565b60006020820190506128b46000830184612890565b92915050565b6128c381612174565b81146128ce57600080fd5b50565b6000813590506128e0816128ba565b92915050565b600080604083850312156128fd576128fc611fe7565b5b600061290b8582860161203a565b925050602061291c858286016128d1565b9150509250929050565b6000806040838503121561293d5761293c611fe7565b5b600061294b8582860161203a565b925050602061295c8582860161203a565b9150509250929050565b600080600080600060a0868803121561298257612981611fe7565b5b60006129908882890161203a565b95505060206129a18882890161203a565b94505060406129b288828901612070565b93505060606129c388828901612070565b925050608086013567ffffffffffffffff8111156129e4576129e3611fec565b5b6129f08882890161254b565b9150509295509295909350565b60008060008060808587031215612a1757612a16611fe7565b5b6000612a258782880161203a565b945050602085013567ffffffffffffffff811115612a4657612a45611fec565b5b612a52878288016122c2565b935050604085013567ffffffffffffffff811115612a7357612a72611fec565b5b612a7f878288016124aa565b925050606085013567ffffffffffffffff811115612aa057612a9f611fec565b5b612aac878288016124aa565b91505092959194509250565b7f455243313135353a2062616c616e636520717565727920666f7220746865207a60008201527f65726f2061646472657373000000000000000000000000000000000000000000602082015250565b6000612b14602b83612344565b9150612b1f82612ab8565b604082019050919050565b60006020820190508181036000830152612b4381612b07565b9050919050565b7f4f776e61626c653a2063616c6c6572206973206e6f7420746865206f776e6572600082015250565b6000612b80602083612344565b9150612b8b82612b4a565b602082019050919050565b60006020820190508181036000830152612baf81612b73565b9050919050565b7f4e487b7100000000000000000000000000000000000000000000000000000000600052602260045260246000fd5b60006002820490506001821680612bfd57607f821691505b60208210811415612c1157612c10612bb6565b5b50919050565b7f455243313135353a207472616e736665722063616c6c6572206973206e6f742060008201527f6f776e6572206e6f7220617070726f7665640000000000000000000000000000602082015250565b6000612c73603283612344565b9150612c7e82612c17565b604082019050919050565b60006020820190508181036000830152612ca281612c66565b9050919050565b7f455243313135353a206163636f756e747320616e6420696473206c656e67746860008201527f206d69736d617463680000000000000000000000000000000000000000000000602082015250565b6000612d05602983612344565b9150612d1082612ca9565b604082019050919050565b60006020820190508181036000830152612d3481612cf8565b9050919050565b7f4e487b7100000000000000000000000000000000000000000000000000000000600052603260045260246000fd5b7f4e487b7100000000000000000000000000000000000000000000000000000000600052601160045260246000fd5b6000612da48261204f565b91507fffffffffffffffffffffffffffffffffffffffffffffffffffffffffffffffff821415612dd757612dd6612d6a565b5b600182019050919050565b7f455243313135353a2063616c6c6572206973206e6f74206f776e6572206e6f7260008201527f20617070726f7665640000000000000000000000000000000000000000000000602082015250565b6000612e3e602983612344565b9150612e4982612de2565b604082019050919050565b60006020820190508181036000830152612e6d81612e31565b9050919050565b7f4f776e61626c653a206e6577206f776e657220697320746865207a65726f206160008201527f6464726573730000000000000000000000000000000000000000000000000000602082015250565b6000612ed0602683612344565b9150612edb82612e74565b604082019050919050565b60006020820190508181036000830152612eff81612ec3565b9050919050565b7f496d70726f70657220696e707574000000000000000000000000000000000000600082015250565b6000612f3c600e83612344565b9150612f4782612f06565b602082019050919050565b60006020820190508181036000830152612f6b81612f2f565b9050919050565b6000612f7d8261204f565b9150612f888361204f565b925082821015612f9b57612f9a612d6a565b5b828203905092915050565b600081905092915050565b6000612fbc82612339565b612fc68185612fa6565b9350612fd6818560208601612355565b80840191505092915050565b7f2f00000000000000000000000000000000000000000000000000000000000000600082015250565b6000613018600183612fa6565b915061302382612fe2565b600182019050919050565b600061303a8285612fb1565b91506130458261300b565b91506130518284612fb1565b91508190509392505050565b7f455243313135353a2069647320616e6420616d6f756e7473206c656e6774682060008201527f6d69736d61746368000000000000000000000000000000000000000000000000602082015250565b60006130b9602883612344565b91506130c48261305d565b604082019050919050565b600060208201905081810360008301526130e8816130ac565b9050919050565b7f455243313135353a207472616e7366657220746f20746865207a65726f20616460008201527f6472657373000000000000000000000000000000000000000000000000000000602082015250565b600061314b602583612344565b9150613156826130ef565b604082019050919050565b6000602082019050818103600083015261317a8161313e565b9050919050565b7f455243313135353a20696e73756666696369656e742062616c616e636520666f60008201527f72207472616e7366657200000000000000000000000000000000000000000000602082015250565b60006131dd602a83612344565b91506131e882613181565b604082019050919050565b6000602082019050818103600083015261320c816131d0565b9050919050565b600061321e8261204f565b91506132298361204f565b9250827fffffffffffffffffffffffffffffffffffffffffffffffffffffffffffffffff0382111561325e5761325d612d6a565b5b828201905092915050565b6000604082019050818103600083015261328381856127e3565b9050818103602083015261329781846127e3565b90509392505050565b7f455243313135353a2073657474696e6720617070726f76616c2073746174757360008201527f20666f722073656c660000000000000000000000000000000000000000000000602082015250565b60006132fc602983612344565b9150613307826132a0565b604082019050919050565b6000602082019050818103600083015261332b816132ef565b9050919050565b600060408201905061334760008301856120c5565b61335460208301846120c5565b9392505050565b7f455243313135353a206d696e7420746f20746865207a65726f2061646472657360008201527f7300000000000000000000000000000000000000000000000000000000000000602082015250565b60006133b7602183612344565b91506133c28261335b565b604082019050919050565b600060208201905081810360008301526133e6816133aa565b9050919050565b7f4e487b7100000000000000000000000000000000000000000000000000000000600052601260045260246000fd5b60006134278261204f565b91506134328361204f565b925082613442576134416133ed565b5b828204905092915050565b60006134588261204f565b91506134638361204f565b925082613473576134726133ed565b5b828206905092915050565b600081519050919050565b600082825260208201905092915050565b60006134a58261347e565b6134af8185613489565b93506134bf818560208601612355565b6134c8816121b4565b840191505092915050565b600060a0820190506134e86000830188612890565b6134f56020830187612890565b818103604083015261350781866127e3565b9050818103606083015261351b81856127e3565b9050818103608083015261352f818461349a565b90509695505050505050565b60008151905061354a8161211b565b92915050565b60006020828403121561356657613565611fe7565b5b60006135748482850161353b565b91505092915050565b60008160e01c9050919050565b600060033d11156135a95760046000803e6135a660005161357d565b90505b90565b600060443d10156135bc5761363f565b6135c4611fdd565b60043d036004823e80513d602482011167ffffffffffffffff821117156135ec57505061363f565b808201805167ffffffffffffffff81111561360a575050505061363f565b80602083010160043d03850181111561362757505050505061363f565b613636826020018501866121f4565b82955050505050505b90565b7f455243313135353a207472616e7366657220746f206e6f6e204552433131353560008201527f526563656976657220696d706c656d656e746572000000000000000000000000602082015250565b600061369e603483612344565b91506136a982613642565b604082019050919050565b600060208201905081810360008301526136cd81613691565b9050919050565b7f455243313135353a204552433131353552656365697665722072656a6563746560008201527f6420746f6b656e73000000000000000000000000000000000000000000000000602082015250565b6000613730602883612344565b915061373b826136d4565b604082019050919050565b6000602082019050818103600083015261375f81613723565b9050919050565b600060a08201905061377b6000830188612890565b6137886020830187612890565b61379560408301866120c5565b6137a260608301856120c5565b81810360808301526137b4818461349a565b9050969550505050505056fea26469706673582212209d75af7e465690ff432a6e0b54fc009c1ef1d6fbe691ef83fd274840e716e27f64736f6c63430008090033",
  "immutableReferences": {
    "113": [
      {
        "length": 32,
        "start": 2191
      }
    ]
  },
  "source": "// SPDX-License-Identifier: MIT\npragma solidity ^0.8.9;\n\nimport \"@openzeppelin/contracts/token/ERC1155/ERC1155.sol\";\nimport \"@openzeppelin/contracts/access/Ownable.sol\";\nimport \"@openzeppelin/contracts/metatx/ERC2771Context.sol\";\nimport \"@openzeppelin/contracts/utils/Counters.sol\";\nimport \"@openzeppelin/contracts/utils/Strings.sol\";\n\n\ncontract PolygonNFT1155V2 is ERC1155, ERC2771Context, Ownable  {\n\n    string public name;\n    string public symbol;\n\n    //TODO: change the forwarder address while deploying to mainnet - 0x86C80a8aa58e0A4fa09A69624c31Ab2a6CAD56b8\n    constructor(string memory _name, string memory _symbol) ERC1155(\"\") ERC2771Context(0x9399BB24DBB5C4b782C70c2969F58716Ebbd6a3b) {\n        name = _name;\n        symbol = _symbol;\n    }\n\n    event BatchMintERC1155(uint256[] mintedIds);\n\n    function setURI(string memory newuri) public onlyOwner {\n        _setURI(newuri);\n    }\n\n    using Counters for Counters.Counter;\n    using Strings for uint256;\n    Counters.Counter private _tokenIds;\n\n    mapping(uint256 => string) public tokenURI;\n\n    //This should be overriden in this contract since both context.sol and ERC2771Context.sol have the same function name and params.\n    function _msgSender() internal view override(ERC2771Context, Context) returns (address sender) {\n        sender = ERC2771Context._msgSender();\n    }\n\n        //This should be overriden in this contract since both context.sol and ERC2771Context.sol have the same function name and params.\n    function _msgData() internal view virtual override(ERC2771Context, Context) returns (bytes calldata) {\n        return ERC2771Context._msgData();\n    }\n\n    function mint(\n        address user,\n        string memory _uri,\n        uint256[] memory tokenIds,\n        uint256[] memory amount\n    ) public\n\n    {\n        require(tokenIds.length == amount.length, \"Improper input\");\n        //require(tokenIds.length <= 20, \"Only 20 input allowed!\");\n\n        uint256[] memory mintedIds = new uint256[](tokenIds.length);\n        uint256 j = 0;\n        for(uint256 i = tokenIds[0]; i <= tokenIds[tokenIds.length - 1]; i++) {\n            _tokenIds.increment();\n\n            uint256 newItemId = _tokenIds.current();\n            _mint(user, newItemId, amount[j], \"\");\n            mintedIds[j] = newItemId;\n            j++;\n            setURI(newItemId, string(abi.encodePacked(_uri, '/', i.toString())));\n        }\n\n        emit BatchMintERC1155(mintedIds);\n    }\n\n    function setURI(uint256 _id, string memory _uri) internal {\n        tokenURI[_id] = _uri;\n    }\n\n    function uri(uint256 _id) public view override returns (string memory) {\n        return tokenURI[_id];\n    }\n\n}",
  "sourcePath": "/home/nisamdheen/Desktop/cope-studio/trfflegas/contracts/PolygonNFT1155V2.sol",
  "compiler": {
    "name": "solc",
    "version": "0.8.9+commit.e5eed63a.Emscripten.clang"
  },
  "schemaVersion": "3.4.4",
  "updatedAt": "2022-04-26T12:10:43.739Z",
  "devdoc": {
    "kind": "dev",
    "methods": {
      "balanceOf(address,uint256)": {
        "details": "See {IERC1155-balanceOf}. Requirements: - `account` cannot be the zero address."
      },
      "balanceOfBatch(address[],uint256[])": {
        "details": "See {IERC1155-balanceOfBatch}. Requirements: - `accounts` and `ids` must have the same length."
      },
      "isApprovedForAll(address,address)": {
        "details": "See {IERC1155-isApprovedForAll}."
      },
      "owner()": {
        "details": "Returns the address of the current owner."
      },
      "renounceOwnership()": {
        "details": "Leaves the contract without owner. It will not be possible to call `onlyOwner` functions anymore. Can only be called by the current owner. NOTE: Renouncing ownership will leave the contract without an owner, thereby removing any functionality that is only available to the owner."
      },
      "safeBatchTransferFrom(address,address,uint256[],uint256[],bytes)": {
        "details": "See {IERC1155-safeBatchTransferFrom}."
      },
      "safeTransferFrom(address,address,uint256,uint256,bytes)": {
        "details": "See {IERC1155-safeTransferFrom}."
      },
      "setApprovalForAll(address,bool)": {
        "details": "See {IERC1155-setApprovalForAll}."
      },
      "supportsInterface(bytes4)": {
        "details": "See {IERC165-supportsInterface}."
      },
      "transferOwnership(address)": {
        "details": "Transfers ownership of the contract to a new account (`newOwner`). Can only be called by the current owner."
      }
    },
    "version": 1
  },
  "userdoc": {
    "kind": "user",
    "methods": {},
    "version": 1
  }
}